:1000060000000000000000000000000000000000EA
:100016000000000000000000FE3F0020002000203D
:100026000020002000200020000000000000F80F43
:10003600041002200220022002200410F80F000003
:1000460000000000FE07000800100020002000103D
:100056000008FE07000000000000FE3F822082200C
:100066008220822082208220822000000000000060
:10007600000000000000000000000000000000007A
:10008600000000000000000000000000000000006A
:10009600000000000000000000000000000000005A
:1000A600000000000000000000000000000000004A
:1000B6007800FC00FE01FE03FE07FE0FFE1FFC3F5C
:1000C600F87FFC3FFE1FFE0FFE07FE03FE01FC004D
:1000D60078000000000000000000000000000000A2
:1000E600000000000000000000000000000000000A
:1000F60000000000000000000000000000000000FA
:1001060000000000000000000000000000000000E9
:10011600000000000000C0014001C0010000000016
:10012600F00F0810042000000000F03F0800040053
:10013600040004000800F03F00000000002000203A
:1001460000200020002000000000F03F080004000E
:10015600040004000800F03F00000000042008101E
:10016600F00F00000000C0014001C00100000000C7
:100176000000000000000000000000000000000079
:10018600002020222EECEC60FCFCFC04040404FCA1
:10019600FCFC00002030180EFFFF1F1C0B83FFFF26
:1001A6003FFFFF0303E3E000808898F8EAEECEFC09
:1001B600B89888FCFCFC8484868684800008C8E89D
:1001C60068FFFFFFE8C8C8FF7F0700FFFF000000C9
:1001D600808898F8EAEECEFCB89888FCFCFC84840B
:1001E600868684800008C8E868FFFFFFE8C8C8FF65
:1001F6007F0700FFFF0000002020A0FCFE3EE2E09B
:1002060070101010FEFE121010101000001C1FBF00
:10021600E1FCFFCFC1E1793FFFFF1F79E1C1810119
:10022600000000000000FCFCFC0000FCFCFC0000E0
:100236000000000000000000C0F07F3F000000FF4B
:10024600FFFF000000F0F000000000E0F8785840E2
:1002560040FEFE424040406060400000000C0F0B34
:100266000908080808FFFF0808080C0C0800000029
:1002760000000006FEFE0202020202020202FEFE6A
:10028600FC00000000000000FFFF81818181818168
:100296008181FFFFFF0000000080C0FEFEFEC0D08F
:1002A6001010FEFEFE1010F0F0100000020303FF17
:1002B600FFFF050584E4FF3F3FFCE48707040404D1
:1002C600000000F0FCFC0C040404F4F4140606061A
:1002D60084800000000081C3E3713D1D0901FFFF1A
:1002E600091939F1E1C1010000F8F808F8F8F848F1
:1002F600FCFCFE467EFEFE4C58584040007F7F08C0
:100306001F1F1F18FFFFFF86C2FF7FFECFC7C20059
:100316000000000078F8F8F8000000000000000077
:100326000000000000000000E0EFEFE10000000028
:1003360000000000000000000000000078F8F8F857
:1003460000000000000000000000000000000000A7
:10035600E0EFEFE1000000000000000000000000F8
:0605760001120001130058
:0B054D00F583E493F4F5A07F787E00B6
:10055800E4FDFCD3ED9FEC9E50070DBD00010C801F
:01056800F2A0
:01056900226F
:0300030002046391
:10046300C0E0C0F0C083C082C0D075D0086310FF65
:10047300E51070230513E51214600A14600C146070
:100483000E2403800F1204A5800D1204D1800812DC
:1004930004FD80031203F2D0D0D082D083D0F0D0F9
:0204A300E03245
:1003F200E513D3940A40050511E4F513E511D394EE
:10040200024003E4F5117F507E14120558E4FB7597
:10041200F002EBA4F58285F08375F0A0E5111205D8
:100422006AE5822486F582E5833401F583E493F458
:10043200F58075F002EBA4F58285F08375F0A0E5F6
:100442001112056AE5822487F582E5833401F5837A
:10045200E493F4F5A07F647E001205580BBB40AF15
:010462002277
:1004A5007FA07E0F120558E4FBEB25E02406F582BC
:1004B500E43400F583E493F4F580EB25E02407F5B7
:0B04C50082E4340012054D0BBB40DE4A
:0104D0002209
:1004D1007FA07E0F120558E4FBEB25E02486F58210
:1004E100E43400F583E493F4F580EB25E02487F50B
:0B04F10082E4340012054D0BBB40DE1E
:0104FC0022DD
:1004FD007FA07E0F120558E4FBEB25E02406F58264
:10050D00E43401F583E493F4F580EB25E02407F55D
:0B051D0082E4340112054D0BBB40DEF0
:0105280022B0
:10052900D288D2A8D2AFE4F510E5B0640160097FA2
:10053900107E271205580512E512D3940340EAE408
:04054900F51280E542
:0300000002036692
:0C036600787FE4F6D8FD7581130203AD2A
:0C056A00A42582F582E5F03583F583229C
:10037200020529E493A3F8E493A34003F68001F273
:1003820008DFF48029E493A3F85407240CC8C3338C
:10039200C4540F4420C8834004F456800146F6DF5B
:1003A200E4800B0102040810204080900576E47E70
:1003B200019360BCA3FF543F30E509541FFEE49350
:1003C200A360010ECF54C025E060A840B8E493A317
:1003D200FAE493A3F8E493A3C8C582C8CAC583CA42
:1003E200F0A3C8C582C8CAC583CADFE9DEE780BEFA
:01057C00007E
:00000001FF
